{
  "_format": "hh-sol-artifact-1",
  "contractName": "MarketPlace",
  "sourceName": "contracts/MarketPlace.sol",
  "abi": [
    {
      "anonymous": false,
      "inputs": [
        {
          "indexed": true,
          "internalType": "uint256",
          "name": "listingId",
          "type": "uint256"
        },
        {
          "indexed": true,
          "internalType": "address",
          "name": "seller",
          "type": "address"
        },
        {
          "indexed": true,
          "internalType": "address",
          "name": "nftContract",
          "type": "address"
        },
        {
          "indexed": false,
          "internalType": "uint256",
          "name": "tokenId",
          "type": "uint256"
        },
        {
          "indexed": false,
          "internalType": "uint256",
          "name": "price",
          "type": "uint256"
        }
      ],
      "name": "NFTListed",
      "type": "event"
    },
    {
      "anonymous": false,
      "inputs": [
        {
          "indexed": true,
          "internalType": "uint256",
          "name": "listingId",
          "type": "uint256"
        },
        {
          "indexed": true,
          "internalType": "address",
          "name": "buyer",
          "type": "address"
        },
        {
          "indexed": true,
          "internalType": "address",
          "name": "nftContract",
          "type": "address"
        },
        {
          "indexed": false,
          "internalType": "uint256",
          "name": "tokenId",
          "type": "uint256"
        },
        {
          "indexed": false,
          "internalType": "uint256",
          "name": "price",
          "type": "uint256"
        }
      ],
      "name": "NFTSold",
      "type": "event"
    },
    {
      "inputs": [
        {
          "internalType": "uint256",
          "name": "_listingId",
          "type": "uint256"
        }
      ],
      "name": "buyNFT",
      "outputs": [],
      "stateMutability": "payable",
      "type": "function"
    },
    {
      "inputs": [],
      "name": "getAllListings",
      "outputs": [
        {
          "components": [
            {
              "internalType": "address",
              "name": "seller",
              "type": "address"
            },
            {
              "internalType": "address",
              "name": "nftContract",
              "type": "address"
            },
            {
              "internalType": "uint256",
              "name": "tokenId",
              "type": "uint256"
            },
            {
              "internalType": "uint256",
              "name": "price",
              "type": "uint256"
            },
            {
              "internalType": "bool",
              "name": "isSold",
              "type": "bool"
            }
          ],
          "internalType": "struct MarketPlace.Listing[]",
          "name": "",
          "type": "tuple[]"
        }
      ],
      "stateMutability": "view",
      "type": "function"
    },
    {
      "inputs": [
        {
          "internalType": "address",
          "name": "_nftContract",
          "type": "address"
        },
        {
          "internalType": "uint256",
          "name": "_tokenId",
          "type": "uint256"
        },
        {
          "internalType": "uint256",
          "name": "_price",
          "type": "uint256"
        }
      ],
      "name": "listNFT",
      "outputs": [
        {
          "internalType": "uint256",
          "name": "",
          "type": "uint256"
        }
      ],
      "stateMutability": "nonpayable",
      "type": "function"
    },
    {
      "inputs": [],
      "name": "listingCounter",
      "outputs": [
        {
          "internalType": "uint256",
          "name": "",
          "type": "uint256"
        }
      ],
      "stateMutability": "view",
      "type": "function"
    },
    {
      "inputs": [
        {
          "internalType": "uint256",
          "name": "",
          "type": "uint256"
        }
      ],
      "name": "listings",
      "outputs": [
        {
          "internalType": "address",
          "name": "seller",
          "type": "address"
        },
        {
          "internalType": "address",
          "name": "nftContract",
          "type": "address"
        },
        {
          "internalType": "uint256",
          "name": "tokenId",
          "type": "uint256"
        },
        {
          "internalType": "uint256",
          "name": "price",
          "type": "uint256"
        },
        {
          "internalType": "bool",
          "name": "isSold",
          "type": "bool"
        }
      ],
      "stateMutability": "view",
      "type": "function"
    }
  ],
  "bytecode": "0x608060405234801561001057600080fd5b506111dc806100206000396000f3fe60806040526004361061004a5760003560e01c806351ed82881461004f5780636c2c9c7d1461006b578063ad05f1b414610096578063ae73ccec146100d3578063de74e57b146100fe575b600080fd5b61006960048036038101906100649190610aa7565b61013f565b005b34801561007757600080fd5b506100806103c8565b60405161008d9190610ae3565b60405180910390f35b3480156100a257600080fd5b506100bd60048036038101906100b89190610b5c565b6103ce565b6040516100ca9190610ae3565b60405180910390f35b3480156100df57600080fd5b506100e86107e3565b6040516100f59190610cff565b60405180910390f35b34801561010a57600080fd5b5061012560048036038101906101209190610aa7565b61098c565b604051610136959493929190610d3f565b60405180910390f35b600080600083815260200190815260200160002090508060030154341461019b576040517f08c379a000000000000000000000000000000000000000000000000000000000815260040161019290610def565b60405180910390fd5b8060040160009054906101000a900460ff16156101ed576040517f08c379a00000000000000000000000000000000000000000000000000000000081526004016101e490610e5b565b60405180910390fd5b60018160040160006101000a81548160ff0219169083151502179055508060000160009054906101000a900473ffffffffffffffffffffffffffffffffffffffff1673ffffffffffffffffffffffffffffffffffffffff166108fc349081150290604051600060405180830381858888f19350505050158015610274573d6000803e3d6000fd5b508060010160009054906101000a900473ffffffffffffffffffffffffffffffffffffffff1673ffffffffffffffffffffffffffffffffffffffff166342842e0e8260000160009054906101000a900473ffffffffffffffffffffffffffffffffffffffff163384600201546040518463ffffffff1660e01b81526004016102fe93929190610e7b565b600060405180830381600087803b15801561031857600080fd5b505af115801561032c573d6000803e3d6000fd5b505050508060010160009054906101000a900473ffffffffffffffffffffffffffffffffffffffff1673ffffffffffffffffffffffffffffffffffffffff163373ffffffffffffffffffffffffffffffffffffffff16837f5fafad85dec201c2e73b6a2bef6351129304a624ea8720ecd04cd7f04d83bc39846002015485600301546040516103bc929190610eb2565b60405180910390a45050565b60015481565b6000808490503373ffffffffffffffffffffffffffffffffffffffff168173ffffffffffffffffffffffffffffffffffffffff16636352211e866040518263ffffffff1660e01b81526004016104249190610ae3565b602060405180830381865afa158015610441573d6000803e3d6000fd5b505050506040513d601f19601f820116820180604052508101906104659190610ef0565b73ffffffffffffffffffffffffffffffffffffffff16146104bb576040517f08c379a00000000000000000000000000000000000000000000000000000000081526004016104b290610f69565b60405180910390fd5b8073ffffffffffffffffffffffffffffffffffffffff1663e985e9c533306040518363ffffffff1660e01b81526004016104f6929190610f89565b602060405180830381865afa158015610513573d6000803e3d6000fd5b505050506040513d601f19601f820116820180604052508101906105379190610fde565b806105e657503073ffffffffffffffffffffffffffffffffffffffff168173ffffffffffffffffffffffffffffffffffffffff1663081812fc866040518263ffffffff1660e01b815260040161058d9190610ae3565b602060405180830381865afa1580156105aa573d6000803e3d6000fd5b505050506040513d601f19601f820116820180604052508101906105ce9190610ef0565b73ffffffffffffffffffffffffffffffffffffffff16145b610625576040517f08c379a000000000000000000000000000000000000000000000000000000000815260040161061c9061107d565b60405180910390fd5b60016000815480929190610638906110cc565b91905055506040518060a001604052803373ffffffffffffffffffffffffffffffffffffffff1681526020018673ffffffffffffffffffffffffffffffffffffffff16815260200185815260200184815260200160001515815250600080600154815260200190815260200160002060008201518160000160006101000a81548173ffffffffffffffffffffffffffffffffffffffff021916908373ffffffffffffffffffffffffffffffffffffffff16021790555060208201518160010160006101000a81548173ffffffffffffffffffffffffffffffffffffffff021916908373ffffffffffffffffffffffffffffffffffffffff160217905550604082015181600201556060820151816003015560808201518160040160006101000a81548160ff0219169083151502179055509050508473ffffffffffffffffffffffffffffffffffffffff163373ffffffffffffffffffffffffffffffffffffffff166001547fb0fe4922ac99799c17a4130d5c045ba2ecdf6e15b75b9ea84aaf0dc28724a42b87876040516107ce929190610eb2565b60405180910390a46001549150509392505050565b6060600060015467ffffffffffffffff81111561080357610802611114565b5b60405190808252806020026020018201604052801561083c57816020015b610829610a0f565b8152602001906001900390816108215790505b5090506000600190505b6001548111610984576000808281526020019081526020016000206040518060a00160405290816000820160009054906101000a900473ffffffffffffffffffffffffffffffffffffffff1673ffffffffffffffffffffffffffffffffffffffff1673ffffffffffffffffffffffffffffffffffffffff1681526020016001820160009054906101000a900473ffffffffffffffffffffffffffffffffffffffff1673ffffffffffffffffffffffffffffffffffffffff1673ffffffffffffffffffffffffffffffffffffffff16815260200160028201548152602001600382015481526020016004820160009054906101000a900460ff161515151581525050826001836109559190611143565b8151811061096657610965611177565b5b6020026020010181905250808061097c906110cc565b915050610846565b508091505090565b60006020528060005260406000206000915090508060000160009054906101000a900473ffffffffffffffffffffffffffffffffffffffff16908060010160009054906101000a900473ffffffffffffffffffffffffffffffffffffffff16908060020154908060030154908060040160009054906101000a900460ff16905085565b6040518060a00160405280600073ffffffffffffffffffffffffffffffffffffffff168152602001600073ffffffffffffffffffffffffffffffffffffffff16815260200160008152602001600081526020016000151581525090565b600080fd5b6000819050919050565b610a8481610a71565b8114610a8f57600080fd5b50565b600081359050610aa181610a7b565b92915050565b600060208284031215610abd57610abc610a6c565b5b6000610acb84828501610a92565b91505092915050565b610add81610a71565b82525050565b6000602082019050610af86000830184610ad4565b92915050565b600073ffffffffffffffffffffffffffffffffffffffff82169050919050565b6000610b2982610afe565b9050919050565b610b3981610b1e565b8114610b4457600080fd5b50565b600081359050610b5681610b30565b92915050565b600080600060608486031215610b7557610b74610a6c565b5b6000610b8386828701610b47565b9350506020610b9486828701610a92565b9250506040610ba586828701610a92565b9150509250925092565b600081519050919050565b600082825260208201905092915050565b6000819050602082019050919050565b610be481610b1e565b82525050565b610bf381610a71565b82525050565b60008115159050919050565b610c0e81610bf9565b82525050565b60a082016000820151610c2a6000850182610bdb565b506020820151610c3d6020850182610bdb565b506040820151610c506040850182610bea565b506060820151610c636060850182610bea565b506080820151610c766080850182610c05565b50505050565b6000610c888383610c14565b60a08301905092915050565b6000602082019050919050565b6000610cac82610baf565b610cb68185610bba565b9350610cc183610bcb565b8060005b83811015610cf2578151610cd98882610c7c565b9750610ce483610c94565b925050600181019050610cc5565b5085935050505092915050565b60006020820190508181036000830152610d198184610ca1565b905092915050565b610d2a81610b1e565b82525050565b610d3981610bf9565b82525050565b600060a082019050610d546000830188610d21565b610d616020830187610d21565b610d6e6040830186610ad4565b610d7b6060830185610ad4565b610d886080830184610d30565b9695505050505050565b600082825260208201905092915050565b7f496e636f72726563742070726963652073656e74000000000000000000000000600082015250565b6000610dd9601483610d92565b9150610de482610da3565b602082019050919050565b60006020820190508181036000830152610e0881610dcc565b9050919050565b7f4e465420616c726561647920736f6c6400000000000000000000000000000000600082015250565b6000610e45601083610d92565b9150610e5082610e0f565b602082019050919050565b60006020820190508181036000830152610e7481610e38565b9050919050565b6000606082019050610e906000830186610d21565b610e9d6020830185610d21565b610eaa6040830184610ad4565b949350505050565b6000604082019050610ec76000830185610ad4565b610ed46020830184610ad4565b9392505050565b600081519050610eea81610b30565b92915050565b600060208284031215610f0657610f05610a6c565b5b6000610f1484828501610edb565b91505092915050565b7f596f7520646f206e6f74206f776e2074686973204e4654000000000000000000600082015250565b6000610f53601783610d92565b9150610f5e82610f1d565b602082019050919050565b60006020820190508181036000830152610f8281610f46565b9050919050565b6000604082019050610f9e6000830185610d21565b610fab6020830184610d21565b9392505050565b610fbb81610bf9565b8114610fc657600080fd5b50565b600081519050610fd881610fb2565b92915050565b600060208284031215610ff457610ff3610a6c565b5b600061100284828501610fc9565b91505092915050565b7f4d61726b6574706c616365206e6f7420617070726f76656420746f206d616e6160008201527f67652074686973204e4654000000000000000000000000000000000000000000602082015250565b6000611067602b83610d92565b91506110728261100b565b604082019050919050565b600060208201905081810360008301526110968161105a565b9050919050565b7f4e487b7100000000000000000000000000000000000000000000000000000000600052601160045260246000fd5b60006110d782610a71565b91507fffffffffffffffffffffffffffffffffffffffffffffffffffffffffffffffff82036111095761110861109d565b5b600182019050919050565b7f4e487b7100000000000000000000000000000000000000000000000000000000600052604160045260246000fd5b600061114e82610a71565b915061115983610a71565b92508282039050818111156111715761117061109d565b5b92915050565b7f4e487b7100000000000000000000000000000000000000000000000000000000600052603260045260246000fdfea2646970667358221220e4204649ed029454d5e15d687d2e1eeed25376629cfa216c83dfcc5be850a65064736f6c63430008180033",
  "linkReferences": {},
  "deployedLinkReferences": {}
}