{
  "_format": "hh-sol-artifact-1",
  "contractName": "NFTs",
  "sourceName": "contracts/NFTs.sol",
  "abi": [
    {
      "inputs": [
        {
          "internalType": "address",
          "name": "_userManagementContract",
          "type": "address"
        }
      ],
      "stateMutability": "nonpayable",
      "type": "constructor"
    },
    {
      "inputs": [
        {
          "internalType": "address",
          "name": "sender",
          "type": "address"
        },
        {
          "internalType": "uint256",
          "name": "tokenId",
          "type": "uint256"
        },
        {
          "internalType": "address",
          "name": "owner",
          "type": "address"
        }
      ],
      "name": "ERC721IncorrectOwner",
      "type": "error"
    },
    {
      "inputs": [
        {
          "internalType": "address",
          "name": "operator",
          "type": "address"
        },
        {
          "internalType": "uint256",
          "name": "tokenId",
          "type": "uint256"
        }
      ],
      "name": "ERC721InsufficientApproval",
      "type": "error"
    },
    {
      "inputs": [
        {
          "internalType": "address",
          "name": "approver",
          "type": "address"
        }
      ],
      "name": "ERC721InvalidApprover",
      "type": "error"
    },
    {
      "inputs": [
        {
          "internalType": "address",
          "name": "operator",
          "type": "address"
        }
      ],
      "name": "ERC721InvalidOperator",
      "type": "error"
    },
    {
      "inputs": [
        {
          "internalType": "address",
          "name": "owner",
          "type": "address"
        }
      ],
      "name": "ERC721InvalidOwner",
      "type": "error"
    },
    {
      "inputs": [
        {
          "internalType": "address",
          "name": "receiver",
          "type": "address"
        }
      ],
      "name": "ERC721InvalidReceiver",
      "type": "error"
    },
    {
      "inputs": [
        {
          "internalType": "address",
          "name": "sender",
          "type": "address"
        }
      ],
      "name": "ERC721InvalidSender",
      "type": "error"
    },
    {
      "inputs": [
        {
          "internalType": "uint256",
          "name": "tokenId",
          "type": "uint256"
        }
      ],
      "name": "ERC721NonexistentToken",
      "type": "error"
    },
    {
      "anonymous": false,
      "inputs": [
        {
          "indexed": true,
          "internalType": "address",
          "name": "owner",
          "type": "address"
        },
        {
          "indexed": true,
          "internalType": "address",
          "name": "approved",
          "type": "address"
        },
        {
          "indexed": true,
          "internalType": "uint256",
          "name": "tokenId",
          "type": "uint256"
        }
      ],
      "name": "Approval",
      "type": "event"
    },
    {
      "anonymous": false,
      "inputs": [
        {
          "indexed": true,
          "internalType": "address",
          "name": "owner",
          "type": "address"
        },
        {
          "indexed": true,
          "internalType": "address",
          "name": "operator",
          "type": "address"
        },
        {
          "indexed": false,
          "internalType": "bool",
          "name": "approved",
          "type": "bool"
        }
      ],
      "name": "ApprovalForAll",
      "type": "event"
    },
    {
      "anonymous": false,
      "inputs": [
        {
          "indexed": false,
          "internalType": "uint256",
          "name": "_fromTokenId",
          "type": "uint256"
        },
        {
          "indexed": false,
          "internalType": "uint256",
          "name": "_toTokenId",
          "type": "uint256"
        }
      ],
      "name": "BatchMetadataUpdate",
      "type": "event"
    },
    {
      "anonymous": false,
      "inputs": [
        {
          "indexed": false,
          "internalType": "uint256",
          "name": "_tokenId",
          "type": "uint256"
        }
      ],
      "name": "MetadataUpdate",
      "type": "event"
    },
    {
      "anonymous": false,
      "inputs": [
        {
          "indexed": true,
          "internalType": "address",
          "name": "from",
          "type": "address"
        },
        {
          "indexed": true,
          "internalType": "address",
          "name": "to",
          "type": "address"
        },
        {
          "indexed": true,
          "internalType": "uint256",
          "name": "tokenId",
          "type": "uint256"
        }
      ],
      "name": "Transfer",
      "type": "event"
    },
    {
      "inputs": [
        {
          "internalType": "address",
          "name": "to",
          "type": "address"
        },
        {
          "internalType": "uint256",
          "name": "tokenId",
          "type": "uint256"
        }
      ],
      "name": "approve",
      "outputs": [],
      "stateMutability": "nonpayable",
      "type": "function"
    },
    {
      "inputs": [
        {
          "internalType": "address",
          "name": "owner",
          "type": "address"
        }
      ],
      "name": "balanceOf",
      "outputs": [
        {
          "internalType": "uint256",
          "name": "",
          "type": "uint256"
        }
      ],
      "stateMutability": "view",
      "type": "function"
    },
    {
      "inputs": [
        {
          "internalType": "uint256",
          "name": "tokenId",
          "type": "uint256"
        }
      ],
      "name": "getApproved",
      "outputs": [
        {
          "internalType": "address",
          "name": "",
          "type": "address"
        }
      ],
      "stateMutability": "view",
      "type": "function"
    },
    {
      "inputs": [
        {
          "internalType": "address",
          "name": "owner",
          "type": "address"
        },
        {
          "internalType": "address",
          "name": "operator",
          "type": "address"
        }
      ],
      "name": "isApprovedForAll",
      "outputs": [
        {
          "internalType": "bool",
          "name": "",
          "type": "bool"
        }
      ],
      "stateMutability": "view",
      "type": "function"
    },
    {
      "inputs": [
        {
          "internalType": "string",
          "name": "_tokenURI",
          "type": "string"
        }
      ],
      "name": "mint",
      "outputs": [
        {
          "internalType": "uint256",
          "name": "",
          "type": "uint256"
        }
      ],
      "stateMutability": "nonpayable",
      "type": "function"
    },
    {
      "inputs": [],
      "name": "name",
      "outputs": [
        {
          "internalType": "string",
          "name": "",
          "type": "string"
        }
      ],
      "stateMutability": "view",
      "type": "function"
    },
    {
      "inputs": [
        {
          "internalType": "uint256",
          "name": "tokenId",
          "type": "uint256"
        }
      ],
      "name": "ownerOf",
      "outputs": [
        {
          "internalType": "address",
          "name": "",
          "type": "address"
        }
      ],
      "stateMutability": "view",
      "type": "function"
    },
    {
      "inputs": [
        {
          "internalType": "address",
          "name": "from",
          "type": "address"
        },
        {
          "internalType": "address",
          "name": "to",
          "type": "address"
        },
        {
          "internalType": "uint256",
          "name": "tokenId",
          "type": "uint256"
        }
      ],
      "name": "safeTransferFrom",
      "outputs": [],
      "stateMutability": "nonpayable",
      "type": "function"
    },
    {
      "inputs": [
        {
          "internalType": "address",
          "name": "from",
          "type": "address"
        },
        {
          "internalType": "address",
          "name": "to",
          "type": "address"
        },
        {
          "internalType": "uint256",
          "name": "tokenId",
          "type": "uint256"
        },
        {
          "internalType": "bytes",
          "name": "data",
          "type": "bytes"
        }
      ],
      "name": "safeTransferFrom",
      "outputs": [],
      "stateMutability": "nonpayable",
      "type": "function"
    },
    {
      "inputs": [
        {
          "internalType": "address",
          "name": "operator",
          "type": "address"
        },
        {
          "internalType": "bool",
          "name": "approved",
          "type": "bool"
        }
      ],
      "name": "setApprovalForAll",
      "outputs": [],
      "stateMutability": "nonpayable",
      "type": "function"
    },
    {
      "inputs": [
        {
          "internalType": "bytes4",
          "name": "interfaceId",
          "type": "bytes4"
        }
      ],
      "name": "supportsInterface",
      "outputs": [
        {
          "internalType": "bool",
          "name": "",
          "type": "bool"
        }
      ],
      "stateMutability": "view",
      "type": "function"
    },
    {
      "inputs": [],
      "name": "symbol",
      "outputs": [
        {
          "internalType": "string",
          "name": "",
          "type": "string"
        }
      ],
      "stateMutability": "view",
      "type": "function"
    },
    {
      "inputs": [
        {
          "internalType": "uint256",
          "name": "tokenId",
          "type": "uint256"
        }
      ],
      "name": "tokenURI",
      "outputs": [
        {
          "internalType": "string",
          "name": "",
          "type": "string"
        }
      ],
      "stateMutability": "view",
      "type": "function"
    },
    {
      "inputs": [
        {
          "internalType": "address",
          "name": "owner",
          "type": "address"
        }
      ],
      "name": "tokensOfOwner",
      "outputs": [
        {
          "internalType": "uint256[]",
          "name": "",
          "type": "uint256[]"
        }
      ],
      "stateMutability": "view",
      "type": "function"
    },
    {
      "inputs": [],
      "name": "totalSupply",
      "outputs": [
        {
          "internalType": "uint256",
          "name": "",
          "type": "uint256"
        }
      ],
      "stateMutability": "view",
      "type": "function"
    },
    {
      "inputs": [
        {
          "internalType": "address",
          "name": "from",
          "type": "address"
        },
        {
          "internalType": "address",
          "name": "to",
          "type": "address"
        },
        {
          "internalType": "uint256",
          "name": "tokenId",
          "type": "uint256"
        }
      ],
      "name": "transferFrom",
      "outputs": [],
      "stateMutability": "nonpayable",
      "type": "function"
    },
    {
      "inputs": [],
      "name": "userManagementContract",
      "outputs": [
        {
          "internalType": "address",
          "name": "",
          "type": "address"
        }
      ],
      "stateMutability": "view",
      "type": "function"
    }
  ],
  "bytecode": "0x60806040523480156200001157600080fd5b5060405162002cea38038062002cea83398181016040528101906200003791906200017b565b6040518060400160405280600481526020017f4e465473000000000000000000000000000000000000000000000000000000008152506040518060400160405280600381526020017f4e465400000000000000000000000000000000000000000000000000000000008152508160009081620000b4919062000427565b508060019081620000c6919062000427565b50505080600860006101000a81548173ffffffffffffffffffffffffffffffffffffffff021916908373ffffffffffffffffffffffffffffffffffffffff160217905550506200050e565b600080fd5b600073ffffffffffffffffffffffffffffffffffffffff82169050919050565b6000620001438262000116565b9050919050565b620001558162000136565b81146200016157600080fd5b50565b60008151905062000175816200014a565b92915050565b60006020828403121562000194576200019362000111565b5b6000620001a48482850162000164565b91505092915050565b600081519050919050565b7f4e487b7100000000000000000000000000000000000000000000000000000000600052604160045260246000fd5b7f4e487b7100000000000000000000000000000000000000000000000000000000600052602260045260246000fd5b600060028204905060018216806200022f57607f821691505b602082108103620002455762000244620001e7565b5b50919050565b60008190508160005260206000209050919050565b60006020601f8301049050919050565b600082821b905092915050565b600060088302620002af7fffffffffffffffffffffffffffffffffffffffffffffffffffffffffffffffff8262000270565b620002bb868362000270565b95508019841693508086168417925050509392505050565b6000819050919050565b6000819050919050565b60006200030862000302620002fc84620002d3565b620002dd565b620002d3565b9050919050565b6000819050919050565b6200032483620002e7565b6200033c62000333826200030f565b8484546200027d565b825550505050565b600090565b6200035362000344565b6200036081848462000319565b505050565b5b8181101562000388576200037c60008262000349565b60018101905062000366565b5050565b601f821115620003d757620003a1816200024b565b620003ac8462000260565b81016020851015620003bc578190505b620003d4620003cb8562000260565b83018262000365565b50505b505050565b600082821c905092915050565b6000620003fc60001984600802620003dc565b1980831691505092915050565b6000620004178383620003e9565b9150826002028217905092915050565b6200043282620001ad565b67ffffffffffffffff8111156200044e576200044d620001b8565b5b6200045a825462000216565b620004678282856200038c565b600060209050601f8311600181146200049f57600084156200048a578287015190505b62000496858262000409565b86555062000506565b601f198416620004af866200024b565b60005b82811015620004d957848901518255600182019150602085019450602081019050620004b2565b86831015620004f95784890151620004f5601f891682620003e9565b8355505b6001600288020188555050505b505050505050565b6127cc806200051e6000396000f3fe608060405234801561001057600080fd5b506004361061010b5760003560e01c80636c6e465c116100a2578063a22cb46511610071578063a22cb465146102cc578063b88d4fde146102e8578063c87b56dd14610304578063d85d3d2714610334578063e985e9c5146103645761010b565b80636c6e465c1461023057806370a082311461024e5780638462151c1461027e57806395d89b41146102ae5761010b565b806318160ddd116100de57806318160ddd146101aa57806323b872dd146101c857806342842e0e146101e45780636352211e146102005761010b565b806301ffc9a71461011057806306fdde0314610140578063081812fc1461015e578063095ea7b31461018e575b600080fd5b61012a60048036038101906101259190611aa9565b610394565b6040516101379190611af1565b60405180910390f35b6101486103f5565b6040516101559190611b9c565b60405180910390f35b61017860048036038101906101739190611bf4565b610487565b6040516101859190611c62565b60405180910390f35b6101a860048036038101906101a39190611ca9565b6104a3565b005b6101b26104b9565b6040516101bf9190611cf8565b60405180910390f35b6101e260048036038101906101dd9190611d13565b6104c3565b005b6101fe60048036038101906101f99190611d13565b6105c5565b005b61021a60048036038101906102159190611bf4565b6105e5565b6040516102279190611c62565b60405180910390f35b6102386105f7565b6040516102459190611c62565b60405180910390f35b61026860048036038101906102639190611d66565b61061d565b6040516102759190611cf8565b60405180910390f35b61029860048036038101906102939190611d66565b6106d7565b6040516102a59190611e51565b60405180910390f35b6102b661076e565b6040516102c39190611b9c565b60405180910390f35b6102e660048036038101906102e19190611e9f565b610800565b005b61030260048036038101906102fd9190612014565b610816565b005b61031e60048036038101906103199190611bf4565b610833565b60405161032b9190611b9c565b60405180910390f35b61034e60048036038101906103499190612138565b610946565b60405161035b9190611cf8565b60405180910390f35b61037e60048036038101906103799190612181565b610ac1565b60405161038b9190611af1565b60405180910390f35b6000634906490660e01b7bffffffffffffffffffffffffffffffffffffffffffffffffffffffff1916827bffffffffffffffffffffffffffffffffffffffffffffffffffffffff191614806103ee57506103ed82610b55565b5b9050919050565b606060008054610404906121f0565b80601f0160208091040260200160405190810160405280929190818152602001828054610430906121f0565b801561047d5780601f106104525761010080835404028352916020019161047d565b820191906000526020600020905b81548152906001019060200180831161046057829003601f168201915b5050505050905090565b600061049282610c37565b5061049c82610cbf565b9050919050565b6104b582826104b0610cfc565b610d04565b5050565b6000600754905090565b600073ffffffffffffffffffffffffffffffffffffffff168273ffffffffffffffffffffffffffffffffffffffff16036105355760006040517f64a0ae9200000000000000000000000000000000000000000000000000000000815260040161052c9190611c62565b60405180910390fd5b60006105498383610544610cfc565b610d16565b90508373ffffffffffffffffffffffffffffffffffffffff168173ffffffffffffffffffffffffffffffffffffffff16146105bf578382826040517f64283d7b0000000000000000000000000000000000000000000000000000000081526004016105b693929190612221565b60405180910390fd5b50505050565b6105e083838360405180602001604052806000815250610816565b505050565b60006105f082610c37565b9050919050565b600860009054906101000a900473ffffffffffffffffffffffffffffffffffffffff1681565b60008073ffffffffffffffffffffffffffffffffffffffff168273ffffffffffffffffffffffffffffffffffffffff16036106905760006040517f89c62b640000000000000000000000000000000000000000000000000000000081526004016106879190611c62565b60405180910390fd5b600360008373ffffffffffffffffffffffffffffffffffffffff1673ffffffffffffffffffffffffffffffffffffffff168152602001908152602001600020549050919050565b6060600960008373ffffffffffffffffffffffffffffffffffffffff1673ffffffffffffffffffffffffffffffffffffffff16815260200190815260200160002080548060200260200160405190810160405280929190818152602001828054801561076257602002820191906000526020600020905b81548152602001906001019080831161074e575b50505050509050919050565b60606001805461077d906121f0565b80601f01602080910402602001604051908101604052809291908181526020018280546107a9906121f0565b80156107f65780601f106107cb576101008083540402835291602001916107f6565b820191906000526020600020905b8154815290600101906020018083116107d957829003601f168201915b5050505050905090565b61081261080b610cfc565b8383610f30565b5050565b6108218484846104c3565b61082d8484848461109f565b50505050565b606061083e82610c37565b50600060066000848152602001908152602001600020805461085f906121f0565b80601f016020809104026020016040519081016040528092919081815260200182805461088b906121f0565b80156108d85780601f106108ad576101008083540402835291602001916108d8565b820191906000526020600020905b8154815290600101906020018083116108bb57829003601f168201915b5050505050905060006108e9611256565b905060008151036108fe578192505050610941565b60008251111561093357808260405160200161091b929190612294565b60405160208183030381529060405292505050610941565b61093c8461126d565b925050505b919050565b6000600860009054906101000a900473ffffffffffffffffffffffffffffffffffffffff1673ffffffffffffffffffffffffffffffffffffffff1663c3c5a547336040518263ffffffff1660e01b81526004016109a39190611c62565b602060405180830381865afa1580156109c0573d6000803e3d6000fd5b505050506040513d601f19601f820116820180604052508101906109e491906122cd565b610a23576040517f08c379a0000000000000000000000000000000000000000000000000000000008152600401610a1a90612346565b60405180910390fd5b600060076000815480929190610a3890612395565b919050559050610a4833826112d6565b610a5281846113cf565b600960003373ffffffffffffffffffffffffffffffffffffffff1673ffffffffffffffffffffffffffffffffffffffff16815260200190815260200160002081908060018154018082558091505060019003906000526020600020016000909190919091505580915050919050565b6000600560008473ffffffffffffffffffffffffffffffffffffffff1673ffffffffffffffffffffffffffffffffffffffff16815260200190815260200160002060008373ffffffffffffffffffffffffffffffffffffffff1673ffffffffffffffffffffffffffffffffffffffff16815260200190815260200160002060009054906101000a900460ff16905092915050565b60007f80ac58cd000000000000000000000000000000000000000000000000000000007bffffffffffffffffffffffffffffffffffffffffffffffffffffffff1916827bffffffffffffffffffffffffffffffffffffffffffffffffffffffff19161480610c2057507f5b5e139f000000000000000000000000000000000000000000000000000000007bffffffffffffffffffffffffffffffffffffffffffffffffffffffff1916827bffffffffffffffffffffffffffffffffffffffffffffffffffffffff1916145b80610c305750610c2f8261142b565b5b9050919050565b600080610c4383611495565b9050600073ffffffffffffffffffffffffffffffffffffffff168173ffffffffffffffffffffffffffffffffffffffff1603610cb657826040517f7e273289000000000000000000000000000000000000000000000000000000008152600401610cad9190611cf8565b60405180910390fd5b80915050919050565b60006004600083815260200190815260200160002060009054906101000a900473ffffffffffffffffffffffffffffffffffffffff169050919050565b600033905090565b610d1183838360016114d2565b505050565b600080610d2284611495565b9050600073ffffffffffffffffffffffffffffffffffffffff168373ffffffffffffffffffffffffffffffffffffffff1614610d6457610d63818486611697565b5b600073ffffffffffffffffffffffffffffffffffffffff168173ffffffffffffffffffffffffffffffffffffffff1614610df557610da66000856000806114d2565b6001600360008373ffffffffffffffffffffffffffffffffffffffff1673ffffffffffffffffffffffffffffffffffffffff168152602001908152602001600020600082825403925050819055505b600073ffffffffffffffffffffffffffffffffffffffff168573ffffffffffffffffffffffffffffffffffffffff1614610e78576001600360008773ffffffffffffffffffffffffffffffffffffffff1673ffffffffffffffffffffffffffffffffffffffff168152602001908152602001600020600082825401925050819055505b846002600086815260200190815260200160002060006101000a81548173ffffffffffffffffffffffffffffffffffffffff021916908373ffffffffffffffffffffffffffffffffffffffff160217905550838573ffffffffffffffffffffffffffffffffffffffff168273ffffffffffffffffffffffffffffffffffffffff167fddf252ad1be2c89b69c2b068fc378daa952ba7f163c4a11628f55a4df523b3ef60405160405180910390a4809150509392505050565b600073ffffffffffffffffffffffffffffffffffffffff168273ffffffffffffffffffffffffffffffffffffffff1603610fa157816040517f5b08ba18000000000000000000000000000000000000000000000000000000008152600401610f989190611c62565b60405180910390fd5b80600560008573ffffffffffffffffffffffffffffffffffffffff1673ffffffffffffffffffffffffffffffffffffffff16815260200190815260200160002060008473ffffffffffffffffffffffffffffffffffffffff1673ffffffffffffffffffffffffffffffffffffffff16815260200190815260200160002060006101000a81548160ff0219169083151502179055508173ffffffffffffffffffffffffffffffffffffffff168373ffffffffffffffffffffffffffffffffffffffff167f17307eab39ab6107e8899845ad3d59bd9653f200f220920489ca2b5937696c31836040516110929190611af1565b60405180910390a3505050565b60008373ffffffffffffffffffffffffffffffffffffffff163b1115611250578273ffffffffffffffffffffffffffffffffffffffff1663150b7a026110e3610cfc565b8685856040518563ffffffff1660e01b81526004016111059493929190612432565b6020604051808303816000875af192505050801561114157506040513d601f19601f8201168201806040525081019061113e9190612493565b60015b6111c5573d8060008114611171576040519150601f19603f3d011682016040523d82523d6000602084013e611176565b606091505b5060008151036111bd57836040517f64a0ae920000000000000000000000000000000000000000000000000000000081526004016111b49190611c62565b60405180910390fd5b805181602001fd5b63150b7a0260e01b7bffffffffffffffffffffffffffffffffffffffffffffffffffffffff1916817bffffffffffffffffffffffffffffffffffffffffffffffffffffffff19161461124e57836040517f64a0ae920000000000000000000000000000000000000000000000000000000081526004016112459190611c62565b60405180910390fd5b505b50505050565b606060405180602001604052806000815250905090565b606061127882610c37565b506000611283611256565b905060008151116112a357604051806020016040528060008152506112ce565b806112ad8461175b565b6040516020016112be929190612294565b6040516020818303038152906040525b915050919050565b600073ffffffffffffffffffffffffffffffffffffffff168273ffffffffffffffffffffffffffffffffffffffff16036113485760006040517f64a0ae9200000000000000000000000000000000000000000000000000000000815260040161133f9190611c62565b60405180910390fd5b600061135683836000610d16565b9050600073ffffffffffffffffffffffffffffffffffffffff168173ffffffffffffffffffffffffffffffffffffffff16146113ca5760006040517f73c6ac6e0000000000000000000000000000000000000000000000000000000081526004016113c19190611c62565b60405180910390fd5b505050565b806006600084815260200190815260200160002090816113ef919061266c565b507ff8e1a15aba9398e019f0b49df1a4fde98ee17ae345cb5f6b5e2c27f5033e8ce78260405161141f9190611cf8565b60405180910390a15050565b60007f01ffc9a7000000000000000000000000000000000000000000000000000000007bffffffffffffffffffffffffffffffffffffffffffffffffffffffff1916827bffffffffffffffffffffffffffffffffffffffffffffffffffffffff1916149050919050565b60006002600083815260200190815260200160002060009054906101000a900473ffffffffffffffffffffffffffffffffffffffff169050919050565b808061150b5750600073ffffffffffffffffffffffffffffffffffffffff168273ffffffffffffffffffffffffffffffffffffffff1614155b1561163f57600061151b84610c37565b9050600073ffffffffffffffffffffffffffffffffffffffff168373ffffffffffffffffffffffffffffffffffffffff161415801561158657508273ffffffffffffffffffffffffffffffffffffffff168173ffffffffffffffffffffffffffffffffffffffff1614155b801561159957506115978184610ac1565b155b156115db57826040517fa9fbf51f0000000000000000000000000000000000000000000000000000000081526004016115d29190611c62565b60405180910390fd5b811561163d57838573ffffffffffffffffffffffffffffffffffffffff168273ffffffffffffffffffffffffffffffffffffffff167f8c5be1e5ebec7d5bd14f71427d1e84f3dd0314c0f7b2291e5b200ac8c7c3b92560405160405180910390a45b505b836004600085815260200190815260200160002060006101000a81548173ffffffffffffffffffffffffffffffffffffffff021916908373ffffffffffffffffffffffffffffffffffffffff16021790555050505050565b6116a2838383611829565b61175657600073ffffffffffffffffffffffffffffffffffffffff168373ffffffffffffffffffffffffffffffffffffffff160361171757806040517f7e27328900000000000000000000000000000000000000000000000000000000815260040161170e9190611cf8565b60405180910390fd5b81816040517f177e802f00000000000000000000000000000000000000000000000000000000815260040161174d92919061273e565b60405180910390fd5b505050565b60606000600161176a846118ea565b01905060008167ffffffffffffffff81111561178957611788611ee9565b5b6040519080825280601f01601f1916602001820160405280156117bb5781602001600182028036833780820191505090505b509050600082602001820190505b60011561181e578080600190039150507f3031323334353637383961626364656600000000000000000000000000000000600a86061a8153600a858161181257611811612767565b5b049450600085036117c9575b819350505050919050565b60008073ffffffffffffffffffffffffffffffffffffffff168373ffffffffffffffffffffffffffffffffffffffff16141580156118e157508273ffffffffffffffffffffffffffffffffffffffff168473ffffffffffffffffffffffffffffffffffffffff1614806118a257506118a18484610ac1565b5b806118e057508273ffffffffffffffffffffffffffffffffffffffff166118c883610cbf565b73ffffffffffffffffffffffffffffffffffffffff16145b5b90509392505050565b600080600090507a184f03e93ff9f4daa797ed6e38ed64bf6a1f0100000000000000008310611948577a184f03e93ff9f4daa797ed6e38ed64bf6a1f010000000000000000838161193e5761193d612767565b5b0492506040810190505b6d04ee2d6d415b85acef81000000008310611985576d04ee2d6d415b85acef8100000000838161197b5761197a612767565b5b0492506020810190505b662386f26fc1000083106119b457662386f26fc1000083816119aa576119a9612767565b5b0492506010810190505b6305f5e10083106119dd576305f5e10083816119d3576119d2612767565b5b0492506008810190505b6127108310611a025761271083816119f8576119f7612767565b5b0492506004810190505b60648310611a255760648381611a1b57611a1a612767565b5b0492506002810190505b600a8310611a34576001810190505b80915050919050565b6000604051905090565b600080fd5b600080fd5b60007fffffffff0000000000000000000000000000000000000000000000000000000082169050919050565b611a8681611a51565b8114611a9157600080fd5b50565b600081359050611aa381611a7d565b92915050565b600060208284031215611abf57611abe611a47565b5b6000611acd84828501611a94565b91505092915050565b60008115159050919050565b611aeb81611ad6565b82525050565b6000602082019050611b066000830184611ae2565b92915050565b600081519050919050565b600082825260208201905092915050565b60005b83811015611b46578082015181840152602081019050611b2b565b60008484015250505050565b6000601f19601f8301169050919050565b6000611b6e82611b0c565b611b788185611b17565b9350611b88818560208601611b28565b611b9181611b52565b840191505092915050565b60006020820190508181036000830152611bb68184611b63565b905092915050565b6000819050919050565b611bd181611bbe565b8114611bdc57600080fd5b50565b600081359050611bee81611bc8565b92915050565b600060208284031215611c0a57611c09611a47565b5b6000611c1884828501611bdf565b91505092915050565b600073ffffffffffffffffffffffffffffffffffffffff82169050919050565b6000611c4c82611c21565b9050919050565b611c5c81611c41565b82525050565b6000602082019050611c776000830184611c53565b92915050565b611c8681611c41565b8114611c9157600080fd5b50565b600081359050611ca381611c7d565b92915050565b60008060408385031215611cc057611cbf611a47565b5b6000611cce85828601611c94565b9250506020611cdf85828601611bdf565b9150509250929050565b611cf281611bbe565b82525050565b6000602082019050611d0d6000830184611ce9565b92915050565b600080600060608486031215611d2c57611d2b611a47565b5b6000611d3a86828701611c94565b9350506020611d4b86828701611c94565b9250506040611d5c86828701611bdf565b9150509250925092565b600060208284031215611d7c57611d7b611a47565b5b6000611d8a84828501611c94565b91505092915050565b600081519050919050565b600082825260208201905092915050565b6000819050602082019050919050565b611dc881611bbe565b82525050565b6000611dda8383611dbf565b60208301905092915050565b6000602082019050919050565b6000611dfe82611d93565b611e088185611d9e565b9350611e1383611daf565b8060005b83811015611e44578151611e2b8882611dce565b9750611e3683611de6565b925050600181019050611e17565b5085935050505092915050565b60006020820190508181036000830152611e6b8184611df3565b905092915050565b611e7c81611ad6565b8114611e8757600080fd5b50565b600081359050611e9981611e73565b92915050565b60008060408385031215611eb657611eb5611a47565b5b6000611ec485828601611c94565b9250506020611ed585828601611e8a565b9150509250929050565b600080fd5b600080fd5b7f4e487b7100000000000000000000000000000000000000000000000000000000600052604160045260246000fd5b611f2182611b52565b810181811067ffffffffffffffff82111715611f4057611f3f611ee9565b5b80604052505050565b6000611f53611a3d565b9050611f5f8282611f18565b919050565b600067ffffffffffffffff821115611f7f57611f7e611ee9565b5b611f8882611b52565b9050602081019050919050565b82818337600083830152505050565b6000611fb7611fb284611f64565b611f49565b905082815260208101848484011115611fd357611fd2611ee4565b5b611fde848285611f95565b509392505050565b600082601f830112611ffb57611ffa611edf565b5b813561200b848260208601611fa4565b91505092915050565b6000806000806080858703121561202e5761202d611a47565b5b600061203c87828801611c94565b945050602061204d87828801611c94565b935050604061205e87828801611bdf565b925050606085013567ffffffffffffffff81111561207f5761207e611a4c565b5b61208b87828801611fe6565b91505092959194509250565b600067ffffffffffffffff8211156120b2576120b1611ee9565b5b6120bb82611b52565b9050602081019050919050565b60006120db6120d684612097565b611f49565b9050828152602081018484840111156120f7576120f6611ee4565b5b612102848285611f95565b509392505050565b600082601f83011261211f5761211e611edf565b5b813561212f8482602086016120c8565b91505092915050565b60006020828403121561214e5761214d611a47565b5b600082013567ffffffffffffffff81111561216c5761216b611a4c565b5b6121788482850161210a565b91505092915050565b6000806040838503121561219857612197611a47565b5b60006121a685828601611c94565b92505060206121b785828601611c94565b9150509250929050565b7f4e487b7100000000000000000000000000000000000000000000000000000000600052602260045260246000fd5b6000600282049050600182168061220857607f821691505b60208210810361221b5761221a6121c1565b5b50919050565b60006060820190506122366000830186611c53565b6122436020830185611ce9565b6122506040830184611c53565b949350505050565b600081905092915050565b600061226e82611b0c565b6122788185612258565b9350612288818560208601611b28565b80840191505092915050565b60006122a08285612263565b91506122ac8284612263565b91508190509392505050565b6000815190506122c781611e73565b92915050565b6000602082840312156122e3576122e2611a47565b5b60006122f1848285016122b8565b91505092915050565b7f55736572206e6f74207265676973746572656400000000000000000000000000600082015250565b6000612330601383611b17565b915061233b826122fa565b602082019050919050565b6000602082019050818103600083015261235f81612323565b9050919050565b7f4e487b7100000000000000000000000000000000000000000000000000000000600052601160045260246000fd5b60006123a082611bbe565b91507fffffffffffffffffffffffffffffffffffffffffffffffffffffffffffffffff82036123d2576123d1612366565b5b600182019050919050565b600081519050919050565b600082825260208201905092915050565b6000612404826123dd565b61240e81856123e8565b935061241e818560208601611b28565b61242781611b52565b840191505092915050565b60006080820190506124476000830187611c53565b6124546020830186611c53565b6124616040830185611ce9565b818103606083015261247381846123f9565b905095945050505050565b60008151905061248d81611a7d565b92915050565b6000602082840312156124a9576124a8611a47565b5b60006124b78482850161247e565b91505092915050565b60008190508160005260206000209050919050565b60006020601f8301049050919050565b600082821b905092915050565b6000600883026125227fffffffffffffffffffffffffffffffffffffffffffffffffffffffffffffffff826124e5565b61252c86836124e5565b95508019841693508086168417925050509392505050565b6000819050919050565b600061256961256461255f84611bbe565b612544565b611bbe565b9050919050565b6000819050919050565b6125838361254e565b61259761258f82612570565b8484546124f2565b825550505050565b600090565b6125ac61259f565b6125b781848461257a565b505050565b5b818110156125db576125d06000826125a4565b6001810190506125bd565b5050565b601f821115612620576125f1816124c0565b6125fa846124d5565b81016020851015612609578190505b61261d612615856124d5565b8301826125bc565b50505b505050565b600082821c905092915050565b600061264360001984600802612625565b1980831691505092915050565b600061265c8383612632565b9150826002028217905092915050565b61267582611b0c565b67ffffffffffffffff81111561268e5761268d611ee9565b5b61269882546121f0565b6126a38282856125df565b600060209050601f8311600181146126d657600084156126c4578287015190505b6126ce8582612650565b865550612736565b601f1984166126e4866124c0565b60005b8281101561270c578489015182556001820191506020850194506020810190506126e7565b868310156127295784890151612725601f891682612632565b8355505b6001600288020188555050505b505050505050565b60006040820190506127536000830185611c53565b6127606020830184611ce9565b9392505050565b7f4e487b7100000000000000000000000000000000000000000000000000000000600052601260045260246000fdfea264697066735822122010aaf72e94cd8e7f4798cc160f52f08422a74c21f2f3be2291b1df086d28872f64736f6c63430008180033",
  "linkReferences": {},
  "deployedLinkReferences": {}
}